{
  "_format": "hh-sol-artifact-1",
  "contractName": "Nft",
  "sourceName": "contracts/Nft.sol",
  "abi": [
    {
      "inputs": [],
      "stateMutability": "nonpayable",
      "type": "constructor"
    },
    {
      "inputs": [
        {
          "internalType": "address",
          "name": "sender",
          "type": "address"
        },
        {
          "internalType": "uint256",
          "name": "tokenId",
          "type": "uint256"
        },
        {
          "internalType": "address",
          "name": "owner",
          "type": "address"
        }
      ],
      "name": "ERC721IncorrectOwner",
      "type": "error"
    },
    {
      "inputs": [
        {
          "internalType": "address",
          "name": "operator",
          "type": "address"
        },
        {
          "internalType": "uint256",
          "name": "tokenId",
          "type": "uint256"
        }
      ],
      "name": "ERC721InsufficientApproval",
      "type": "error"
    },
    {
      "inputs": [
        {
          "internalType": "address",
          "name": "approver",
          "type": "address"
        }
      ],
      "name": "ERC721InvalidApprover",
      "type": "error"
    },
    {
      "inputs": [
        {
          "internalType": "address",
          "name": "operator",
          "type": "address"
        }
      ],
      "name": "ERC721InvalidOperator",
      "type": "error"
    },
    {
      "inputs": [
        {
          "internalType": "address",
          "name": "owner",
          "type": "address"
        }
      ],
      "name": "ERC721InvalidOwner",
      "type": "error"
    },
    {
      "inputs": [
        {
          "internalType": "address",
          "name": "receiver",
          "type": "address"
        }
      ],
      "name": "ERC721InvalidReceiver",
      "type": "error"
    },
    {
      "inputs": [
        {
          "internalType": "address",
          "name": "sender",
          "type": "address"
        }
      ],
      "name": "ERC721InvalidSender",
      "type": "error"
    },
    {
      "inputs": [
        {
          "internalType": "uint256",
          "name": "tokenId",
          "type": "uint256"
        }
      ],
      "name": "ERC721NonexistentToken",
      "type": "error"
    },
    {
      "anonymous": false,
      "inputs": [
        {
          "indexed": true,
          "internalType": "address",
          "name": "owner",
          "type": "address"
        },
        {
          "indexed": true,
          "internalType": "address",
          "name": "approved",
          "type": "address"
        },
        {
          "indexed": true,
          "internalType": "uint256",
          "name": "tokenId",
          "type": "uint256"
        }
      ],
      "name": "Approval",
      "type": "event"
    },
    {
      "anonymous": false,
      "inputs": [
        {
          "indexed": true,
          "internalType": "address",
          "name": "owner",
          "type": "address"
        },
        {
          "indexed": true,
          "internalType": "address",
          "name": "operator",
          "type": "address"
        },
        {
          "indexed": false,
          "internalType": "bool",
          "name": "approved",
          "type": "bool"
        }
      ],
      "name": "ApprovalForAll",
      "type": "event"
    },
    {
      "anonymous": false,
      "inputs": [
        {
          "indexed": true,
          "internalType": "address",
          "name": "from",
          "type": "address"
        },
        {
          "indexed": true,
          "internalType": "address",
          "name": "to",
          "type": "address"
        },
        {
          "indexed": true,
          "internalType": "uint256",
          "name": "tokenId",
          "type": "uint256"
        }
      ],
      "name": "Transfer",
      "type": "event"
    },
    {
      "inputs": [
        {
          "internalType": "address",
          "name": "to",
          "type": "address"
        },
        {
          "internalType": "uint256",
          "name": "tokenId",
          "type": "uint256"
        }
      ],
      "name": "approve",
      "outputs": [],
      "stateMutability": "nonpayable",
      "type": "function"
    },
    {
      "inputs": [
        {
          "internalType": "address",
          "name": "owner",
          "type": "address"
        }
      ],
      "name": "balanceOf",
      "outputs": [
        {
          "internalType": "uint256",
          "name": "",
          "type": "uint256"
        }
      ],
      "stateMutability": "view",
      "type": "function"
    },
    {
      "inputs": [
        {
          "internalType": "uint256",
          "name": "tokenId",
          "type": "uint256"
        }
      ],
      "name": "buyNFT",
      "outputs": [],
      "stateMutability": "payable",
      "type": "function"
    },
    {
      "inputs": [
        {
          "internalType": "uint256",
          "name": "tokenId",
          "type": "uint256"
        }
      ],
      "name": "getApproved",
      "outputs": [
        {
          "internalType": "address",
          "name": "",
          "type": "address"
        }
      ],
      "stateMutability": "view",
      "type": "function"
    },
    {
      "inputs": [
        {
          "internalType": "address",
          "name": "owner",
          "type": "address"
        },
        {
          "internalType": "address",
          "name": "operator",
          "type": "address"
        }
      ],
      "name": "isApprovedForAll",
      "outputs": [
        {
          "internalType": "bool",
          "name": "",
          "type": "bool"
        }
      ],
      "stateMutability": "view",
      "type": "function"
    },
    {
      "inputs": [
        {
          "internalType": "uint256",
          "name": "tokenId",
          "type": "uint256"
        },
        {
          "internalType": "uint256",
          "name": "price",
          "type": "uint256"
        }
      ],
      "name": "listNFTForSale",
      "outputs": [],
      "stateMutability": "nonpayable",
      "type": "function"
    },
    {
      "inputs": [],
      "name": "mintNFT",
      "outputs": [],
      "stateMutability": "nonpayable",
      "type": "function"
    },
    {
      "inputs": [],
      "name": "name",
      "outputs": [
        {
          "internalType": "string",
          "name": "",
          "type": "string"
        }
      ],
      "stateMutability": "view",
      "type": "function"
    },
    {
      "inputs": [
        {
          "internalType": "uint256",
          "name": "tokenId",
          "type": "uint256"
        }
      ],
      "name": "ownerOf",
      "outputs": [
        {
          "internalType": "address",
          "name": "",
          "type": "address"
        }
      ],
      "stateMutability": "view",
      "type": "function"
    },
    {
      "inputs": [
        {
          "internalType": "address",
          "name": "from",
          "type": "address"
        },
        {
          "internalType": "address",
          "name": "to",
          "type": "address"
        },
        {
          "internalType": "uint256",
          "name": "tokenId",
          "type": "uint256"
        }
      ],
      "name": "safeTransferFrom",
      "outputs": [],
      "stateMutability": "nonpayable",
      "type": "function"
    },
    {
      "inputs": [
        {
          "internalType": "address",
          "name": "from",
          "type": "address"
        },
        {
          "internalType": "address",
          "name": "to",
          "type": "address"
        },
        {
          "internalType": "uint256",
          "name": "tokenId",
          "type": "uint256"
        },
        {
          "internalType": "bytes",
          "name": "data",
          "type": "bytes"
        }
      ],
      "name": "safeTransferFrom",
      "outputs": [],
      "stateMutability": "nonpayable",
      "type": "function"
    },
    {
      "inputs": [
        {
          "internalType": "address",
          "name": "operator",
          "type": "address"
        },
        {
          "internalType": "bool",
          "name": "approved",
          "type": "bool"
        }
      ],
      "name": "setApprovalForAll",
      "outputs": [],
      "stateMutability": "nonpayable",
      "type": "function"
    },
    {
      "inputs": [
        {
          "internalType": "bytes4",
          "name": "interfaceId",
          "type": "bytes4"
        }
      ],
      "name": "supportsInterface",
      "outputs": [
        {
          "internalType": "bool",
          "name": "",
          "type": "bool"
        }
      ],
      "stateMutability": "view",
      "type": "function"
    },
    {
      "inputs": [],
      "name": "symbol",
      "outputs": [
        {
          "internalType": "string",
          "name": "",
          "type": "string"
        }
      ],
      "stateMutability": "view",
      "type": "function"
    },
    {
      "inputs": [
        {
          "internalType": "uint256",
          "name": "",
          "type": "uint256"
        }
      ],
      "name": "tokenIdToOwner",
      "outputs": [
        {
          "internalType": "address",
          "name": "",
          "type": "address"
        }
      ],
      "stateMutability": "view",
      "type": "function"
    },
    {
      "inputs": [
        {
          "internalType": "uint256",
          "name": "tokenId",
          "type": "uint256"
        }
      ],
      "name": "tokenURI",
      "outputs": [
        {
          "internalType": "string",
          "name": "",
          "type": "string"
        }
      ],
      "stateMutability": "view",
      "type": "function"
    },
    {
      "inputs": [
        {
          "internalType": "address",
          "name": "from",
          "type": "address"
        },
        {
          "internalType": "address",
          "name": "to",
          "type": "address"
        },
        {
          "internalType": "uint256",
          "name": "tokenId",
          "type": "uint256"
        }
      ],
      "name": "transferFrom",
      "outputs": [],
      "stateMutability": "nonpayable",
      "type": "function"
    },
    {
      "inputs": [
        {
          "internalType": "address",
          "name": "to",
          "type": "address"
        },
        {
          "internalType": "uint256",
          "name": "tokenId",
          "type": "uint256"
        }
      ],
      "name": "transferNFT",
      "outputs": [],
      "stateMutability": "nonpayable",
      "type": "function"
    }
  ],
  "bytecode": "0x60806040523480156200001157600080fd5b506040518060400160405280600581526020017f4d794e46540000000000000000000000000000000000000000000000000000008152506040518060400160405280600481526020017f4d4e46540000000000000000000000000000000000000000000000000000000081525081600090816200008f919062000324565b508060019081620000a1919062000324565b5050506200040b565b600081519050919050565b7f4e487b7100000000000000000000000000000000000000000000000000000000600052604160045260246000fd5b7f4e487b7100000000000000000000000000000000000000000000000000000000600052602260045260246000fd5b600060028204905060018216806200012c57607f821691505b602082108103620001425762000141620000e4565b5b50919050565b60008190508160005260206000209050919050565b60006020601f8301049050919050565b600082821b905092915050565b600060088302620001ac7fffffffffffffffffffffffffffffffffffffffffffffffffffffffffffffffff826200016d565b620001b886836200016d565b95508019841693508086168417925050509392505050565b6000819050919050565b6000819050919050565b600062000205620001ff620001f984620001d0565b620001da565b620001d0565b9050919050565b6000819050919050565b6200022183620001e4565b6200023962000230826200020c565b8484546200017a565b825550505050565b600090565b6200025062000241565b6200025d81848462000216565b505050565b5b8181101562000285576200027960008262000246565b60018101905062000263565b5050565b601f821115620002d4576200029e8162000148565b620002a9846200015d565b81016020851015620002b9578190505b620002d1620002c8856200015d565b83018262000262565b50505b505050565b600082821c905092915050565b6000620002f960001984600802620002d9565b1980831691505092915050565b6000620003148383620002e6565b9150826002028217905092915050565b6200032f82620000aa565b67ffffffffffffffff8111156200034b576200034a620000b5565b5b62000357825462000113565b6200036482828562000289565b600060209050601f8311600181146200039c576000841562000387578287015190505b62000393858262000306565b86555062000403565b601f198416620003ac8662000148565b60005b82811015620003d657848901518255600182019150602085019450602081019050620003af565b86831015620003f65784890151620003f2601f891682620002e6565b8355505b6001600288020188555050505b505050505050565b612634806200041b6000396000f3fe6080604052600436106101095760003560e01c80636e9e48ef11610095578063a22cb46511610064578063a22cb4651461036c578063b2733b3914610395578063b88d4fde146103be578063c87b56dd146103e7578063e985e9c51461042457610109565b80636e9e48ef1461029e57806370a08231146102db57806394ab67fe1461031857806395d89b411461034157610109565b806314f710fe116100dc57806314f710fe146101dc57806323b872dd146101f357806342842e0e1461021c57806351ed8288146102455780636352211e1461026157610109565b806301ffc9a71461010e57806306fdde031461014b578063081812fc14610176578063095ea7b3146101b3575b600080fd5b34801561011a57600080fd5b5061013560048036038101906101309190611c83565b610461565b6040516101429190611ccb565b60405180910390f35b34801561015757600080fd5b50610160610543565b60405161016d9190611d76565b60405180910390f35b34801561018257600080fd5b5061019d60048036038101906101989190611dce565b6105d5565b6040516101aa9190611e3c565b60405180910390f35b3480156101bf57600080fd5b506101da60048036038101906101d59190611e83565b6105f1565b005b3480156101e857600080fd5b506101f1610607565b005b3480156101ff57600080fd5b5061021a60048036038101906102159190611ec3565b610685565b005b34801561022857600080fd5b50610243600480360381019061023e9190611ec3565b610787565b005b61025f600480360381019061025a9190611dce565b6107a7565b005b34801561026d57600080fd5b5061028860048036038101906102839190611dce565b61091d565b6040516102959190611e3c565b60405180910390f35b3480156102aa57600080fd5b506102c560048036038101906102c09190611dce565b61092f565b6040516102d29190611e3c565b60405180910390f35b3480156102e757600080fd5b5061030260048036038101906102fd9190611f16565b610962565b60405161030f9190611f52565b60405180910390f35b34801561032457600080fd5b5061033f600480360381019061033a9190611e83565b610a1c565b005b34801561034d57600080fd5b50610356610af3565b6040516103639190611d76565b60405180910390f35b34801561037857600080fd5b50610393600480360381019061038e9190611f99565b610b85565b005b3480156103a157600080fd5b506103bc60048036038101906103b79190611fd9565b610b9b565b005b3480156103ca57600080fd5b506103e560048036038101906103e0919061214e565b610c15565b005b3480156103f357600080fd5b5061040e60048036038101906104099190611dce565b610c32565b60405161041b9190611d76565b60405180910390f35b34801561043057600080fd5b5061044b600480360381019061044691906121d1565b610c9b565b6040516104589190611ccb565b60405180910390f35b60007f80ac58cd000000000000000000000000000000000000000000000000000000007bffffffffffffffffffffffffffffffffffffffffffffffffffffffff1916827bffffffffffffffffffffffffffffffffffffffffffffffffffffffff1916148061052c57507f5b5e139f000000000000000000000000000000000000000000000000000000007bffffffffffffffffffffffffffffffffffffffffffffffffffffffff1916827bffffffffffffffffffffffffffffffffffffffffffffffffffffffff1916145b8061053c575061053b82610d2f565b5b9050919050565b60606000805461055290612240565b80601f016020809104026020016040519081016040528092919081815260200182805461057e90612240565b80156105cb5780601f106105a0576101008083540402835291602001916105cb565b820191906000526020600020905b8154815290600101906020018083116105ae57829003601f168201915b5050505050905090565b60006105e082610d99565b506105ea82610e21565b9050919050565b61060382826105fe610e5e565b610e66565b5050565b6006600081548092919061061a906122a0565b9190505550600060065490506106303382610e78565b336007600083815260200190815260200160002060006101000a81548173ffffffffffffffffffffffffffffffffffffffff021916908373ffffffffffffffffffffffffffffffffffffffff16021790555050565b600073ffffffffffffffffffffffffffffffffffffffff168273ffffffffffffffffffffffffffffffffffffffff16036106f75760006040517f64a0ae920000000000000000000000000000000000000000000000000000000081526004016106ee9190611e3c565b60405180910390fd5b600061070b8383610706610e5e565b610e96565b90508373ffffffffffffffffffffffffffffffffffffffff168173ffffffffffffffffffffffffffffffffffffffff1614610781578382826040517f64283d7b000000000000000000000000000000000000000000000000000000008152600401610778939291906122e8565b60405180910390fd5b50505050565b6107a283838360405180602001604052806000815250610c15565b505050565b60006007600083815260200190815260200160002060009054906101000a900473ffffffffffffffffffffffffffffffffffffffff169050600073ffffffffffffffffffffffffffffffffffffffff168173ffffffffffffffffffffffffffffffffffffffff160361084e576040517f08c379a00000000000000000000000000000000000000000000000000000000081526004016108459061236b565b60405180910390fd5b3373ffffffffffffffffffffffffffffffffffffffff168173ffffffffffffffffffffffffffffffffffffffff16036108bc576040517f08c379a00000000000000000000000000000000000000000000000000000000081526004016108b3906123d7565b60405180910390fd5b6108c78133846110b0565b336007600084815260200190815260200160002060006101000a81548173ffffffffffffffffffffffffffffffffffffffff021916908373ffffffffffffffffffffffffffffffffffffffff1602179055505050565b600061092882610d99565b9050919050565b60076020528060005260406000206000915054906101000a900473ffffffffffffffffffffffffffffffffffffffff1681565b60008073ffffffffffffffffffffffffffffffffffffffff168273ffffffffffffffffffffffffffffffffffffffff16036109d55760006040517f89c62b640000000000000000000000000000000000000000000000000000000081526004016109cc9190611e3c565b60405180910390fd5b600360008373ffffffffffffffffffffffffffffffffffffffff1673ffffffffffffffffffffffffffffffffffffffff168152602001908152602001600020549050919050565b3373ffffffffffffffffffffffffffffffffffffffff16610a3c8261091d565b73ffffffffffffffffffffffffffffffffffffffff1614610a92576040517f08c379a0000000000000000000000000000000000000000000000000000000008152600401610a8990612443565b60405180910390fd5b610a9d3383836110b0565b816007600083815260200190815260200160002060006101000a81548173ffffffffffffffffffffffffffffffffffffffff021916908373ffffffffffffffffffffffffffffffffffffffff1602179055505050565b606060018054610b0290612240565b80601f0160208091040260200160405190810160405280929190818152602001828054610b2e90612240565b8015610b7b5780601f10610b5057610100808354040283529160200191610b7b565b820191906000526020600020905b815481529060010190602001808311610b5e57829003601f168201915b5050505050905090565b610b97610b90610e5e565b838361121d565b5050565b3373ffffffffffffffffffffffffffffffffffffffff16610bbb8361091d565b73ffffffffffffffffffffffffffffffffffffffff1614610c11576040517f08c379a0000000000000000000000000000000000000000000000000000000008152600401610c0890612443565b60405180910390fd5b5050565b610c20848484610685565b610c2c8484848461138c565b50505050565b6060610c3d82610d99565b506000610c48611543565b90506000815111610c685760405180602001604052806000815250610c93565b80610c728461155a565b604051602001610c8392919061249f565b6040516020818303038152906040525b915050919050565b6000600560008473ffffffffffffffffffffffffffffffffffffffff1673ffffffffffffffffffffffffffffffffffffffff16815260200190815260200160002060008373ffffffffffffffffffffffffffffffffffffffff1673ffffffffffffffffffffffffffffffffffffffff16815260200190815260200160002060009054906101000a900460ff16905092915050565b60007f01ffc9a7000000000000000000000000000000000000000000000000000000007bffffffffffffffffffffffffffffffffffffffffffffffffffffffff1916827bffffffffffffffffffffffffffffffffffffffffffffffffffffffff1916149050919050565b600080610da583611628565b9050600073ffffffffffffffffffffffffffffffffffffffff168173ffffffffffffffffffffffffffffffffffffffff1603610e1857826040517f7e273289000000000000000000000000000000000000000000000000000000008152600401610e0f9190611f52565b60405180910390fd5b80915050919050565b60006004600083815260200190815260200160002060009054906101000a900473ffffffffffffffffffffffffffffffffffffffff169050919050565b600033905090565b610e738383836001611665565b505050565b610e9282826040518060200160405280600081525061182a565b5050565b600080610ea284611628565b9050600073ffffffffffffffffffffffffffffffffffffffff168373ffffffffffffffffffffffffffffffffffffffff1614610ee457610ee3818486611846565b5b600073ffffffffffffffffffffffffffffffffffffffff168173ffffffffffffffffffffffffffffffffffffffff1614610f7557610f26600085600080611665565b6001600360008373ffffffffffffffffffffffffffffffffffffffff1673ffffffffffffffffffffffffffffffffffffffff168152602001908152602001600020600082825403925050819055505b600073ffffffffffffffffffffffffffffffffffffffff168573ffffffffffffffffffffffffffffffffffffffff1614610ff8576001600360008773ffffffffffffffffffffffffffffffffffffffff1673ffffffffffffffffffffffffffffffffffffffff168152602001908152602001600020600082825401925050819055505b846002600086815260200190815260200160002060006101000a81548173ffffffffffffffffffffffffffffffffffffffff021916908373ffffffffffffffffffffffffffffffffffffffff160217905550838573ffffffffffffffffffffffffffffffffffffffff168273ffffffffffffffffffffffffffffffffffffffff167fddf252ad1be2c89b69c2b068fc378daa952ba7f163c4a11628f55a4df523b3ef60405160405180910390a4809150509392505050565b600073ffffffffffffffffffffffffffffffffffffffff168273ffffffffffffffffffffffffffffffffffffffff16036111225760006040517f64a0ae920000000000000000000000000000000000000000000000000000000081526004016111199190611e3c565b60405180910390fd5b600061113083836000610e96565b9050600073ffffffffffffffffffffffffffffffffffffffff168173ffffffffffffffffffffffffffffffffffffffff16036111a357816040517f7e27328900000000000000000000000000000000000000000000000000000000815260040161119a9190611f52565b60405180910390fd5b8373ffffffffffffffffffffffffffffffffffffffff168173ffffffffffffffffffffffffffffffffffffffff1614611217578382826040517f64283d7b00000000000000000000000000000000000000000000000000000000815260040161120e939291906122e8565b60405180910390fd5b50505050565b600073ffffffffffffffffffffffffffffffffffffffff168273ffffffffffffffffffffffffffffffffffffffff160361128e57816040517f5b08ba180000000000000000000000000000000000000000000000000000000081526004016112859190611e3c565b60405180910390fd5b80600560008573ffffffffffffffffffffffffffffffffffffffff1673ffffffffffffffffffffffffffffffffffffffff16815260200190815260200160002060008473ffffffffffffffffffffffffffffffffffffffff1673ffffffffffffffffffffffffffffffffffffffff16815260200190815260200160002060006101000a81548160ff0219169083151502179055508173ffffffffffffffffffffffffffffffffffffffff168373ffffffffffffffffffffffffffffffffffffffff167f17307eab39ab6107e8899845ad3d59bd9653f200f220920489ca2b5937696c318360405161137f9190611ccb565b60405180910390a3505050565b60008373ffffffffffffffffffffffffffffffffffffffff163b111561153d578273ffffffffffffffffffffffffffffffffffffffff1663150b7a026113d0610e5e565b8685856040518563ffffffff1660e01b81526004016113f29493929190612518565b6020604051808303816000875af192505050801561142e57506040513d601f19601f8201168201806040525081019061142b9190612579565b60015b6114b2573d806000811461145e576040519150601f19603f3d011682016040523d82523d6000602084013e611463565b606091505b5060008151036114aa57836040517f64a0ae920000000000000000000000000000000000000000000000000000000081526004016114a19190611e3c565b60405180910390fd5b805181602001fd5b63150b7a0260e01b7bffffffffffffffffffffffffffffffffffffffffffffffffffffffff1916817bffffffffffffffffffffffffffffffffffffffffffffffffffffffff19161461153b57836040517f64a0ae920000000000000000000000000000000000000000000000000000000081526004016115329190611e3c565b60405180910390fd5b505b50505050565b606060405180602001604052806000815250905090565b6060600060016115698461190a565b01905060008167ffffffffffffffff81111561158857611587612023565b5b6040519080825280601f01601f1916602001820160405280156115ba5781602001600182028036833780820191505090505b509050600082602001820190505b60011561161d578080600190039150507f3031323334353637383961626364656600000000000000000000000000000000600a86061a8153600a8581611611576116106125a6565b5b049450600085036115c8575b819350505050919050565b60006002600083815260200190815260200160002060009054906101000a900473ffffffffffffffffffffffffffffffffffffffff169050919050565b808061169e5750600073ffffffffffffffffffffffffffffffffffffffff168273ffffffffffffffffffffffffffffffffffffffff1614155b156117d25760006116ae84610d99565b9050600073ffffffffffffffffffffffffffffffffffffffff168373ffffffffffffffffffffffffffffffffffffffff161415801561171957508273ffffffffffffffffffffffffffffffffffffffff168173ffffffffffffffffffffffffffffffffffffffff1614155b801561172c575061172a8184610c9b565b155b1561176e57826040517fa9fbf51f0000000000000000000000000000000000000000000000000000000081526004016117659190611e3c565b60405180910390fd5b81156117d057838573ffffffffffffffffffffffffffffffffffffffff168273ffffffffffffffffffffffffffffffffffffffff167f8c5be1e5ebec7d5bd14f71427d1e84f3dd0314c0f7b2291e5b200ac8c7c3b92560405160405180910390a45b505b836004600085815260200190815260200160002060006101000a81548173ffffffffffffffffffffffffffffffffffffffff021916908373ffffffffffffffffffffffffffffffffffffffff16021790555050505050565b6118348383611a5d565b611841600084848461138c565b505050565b611851838383611b56565b61190557600073ffffffffffffffffffffffffffffffffffffffff168373ffffffffffffffffffffffffffffffffffffffff16036118c657806040517f7e2732890000000000000000000000000000000000000000000000000000000081526004016118bd9190611f52565b60405180910390fd5b81816040517f177e802f0000000000000000000000000000000000000000000000000000000081526004016118fc9291906125d5565b60405180910390fd5b505050565b600080600090507a184f03e93ff9f4daa797ed6e38ed64bf6a1f0100000000000000008310611968577a184f03e93ff9f4daa797ed6e38ed64bf6a1f010000000000000000838161195e5761195d6125a6565b5b0492506040810190505b6d04ee2d6d415b85acef810000000083106119a5576d04ee2d6d415b85acef8100000000838161199b5761199a6125a6565b5b0492506020810190505b662386f26fc1000083106119d457662386f26fc1000083816119ca576119c96125a6565b5b0492506010810190505b6305f5e10083106119fd576305f5e10083816119f3576119f26125a6565b5b0492506008810190505b6127108310611a22576127108381611a1857611a176125a6565b5b0492506004810190505b60648310611a455760648381611a3b57611a3a6125a6565b5b0492506002810190505b600a8310611a54576001810190505b80915050919050565b600073ffffffffffffffffffffffffffffffffffffffff168273ffffffffffffffffffffffffffffffffffffffff1603611acf5760006040517f64a0ae92000000000000000000000000000000000000000000000000000000008152600401611ac69190611e3c565b60405180910390fd5b6000611add83836000610e96565b9050600073ffffffffffffffffffffffffffffffffffffffff168173ffffffffffffffffffffffffffffffffffffffff1614611b515760006040517f73c6ac6e000000000000000000000000000000000000000000000000000000008152600401611b489190611e3c565b60405180910390fd5b505050565b60008073ffffffffffffffffffffffffffffffffffffffff168373ffffffffffffffffffffffffffffffffffffffff1614158015611c0e57508273ffffffffffffffffffffffffffffffffffffffff168473ffffffffffffffffffffffffffffffffffffffff161480611bcf5750611bce8484610c9b565b5b80611c0d57508273ffffffffffffffffffffffffffffffffffffffff16611bf583610e21565b73ffffffffffffffffffffffffffffffffffffffff16145b5b90509392505050565b6000604051905090565b600080fd5b600080fd5b60007fffffffff0000000000000000000000000000000000000000000000000000000082169050919050565b611c6081611c2b565b8114611c6b57600080fd5b50565b600081359050611c7d81611c57565b92915050565b600060208284031215611c9957611c98611c21565b5b6000611ca784828501611c6e565b91505092915050565b60008115159050919050565b611cc581611cb0565b82525050565b6000602082019050611ce06000830184611cbc565b92915050565b600081519050919050565b600082825260208201905092915050565b60005b83811015611d20578082015181840152602081019050611d05565b60008484015250505050565b6000601f19601f8301169050919050565b6000611d4882611ce6565b611d528185611cf1565b9350611d62818560208601611d02565b611d6b81611d2c565b840191505092915050565b60006020820190508181036000830152611d908184611d3d565b905092915050565b6000819050919050565b611dab81611d98565b8114611db657600080fd5b50565b600081359050611dc881611da2565b92915050565b600060208284031215611de457611de3611c21565b5b6000611df284828501611db9565b91505092915050565b600073ffffffffffffffffffffffffffffffffffffffff82169050919050565b6000611e2682611dfb565b9050919050565b611e3681611e1b565b82525050565b6000602082019050611e516000830184611e2d565b92915050565b611e6081611e1b565b8114611e6b57600080fd5b50565b600081359050611e7d81611e57565b92915050565b60008060408385031215611e9a57611e99611c21565b5b6000611ea885828601611e6e565b9250506020611eb985828601611db9565b9150509250929050565b600080600060608486031215611edc57611edb611c21565b5b6000611eea86828701611e6e565b9350506020611efb86828701611e6e565b9250506040611f0c86828701611db9565b9150509250925092565b600060208284031215611f2c57611f2b611c21565b5b6000611f3a84828501611e6e565b91505092915050565b611f4c81611d98565b82525050565b6000602082019050611f676000830184611f43565b92915050565b611f7681611cb0565b8114611f8157600080fd5b50565b600081359050611f9381611f6d565b92915050565b60008060408385031215611fb057611faf611c21565b5b6000611fbe85828601611e6e565b9250506020611fcf85828601611f84565b9150509250929050565b60008060408385031215611ff057611fef611c21565b5b6000611ffe85828601611db9565b925050602061200f85828601611db9565b9150509250929050565b600080fd5b600080fd5b7f4e487b7100000000000000000000000000000000000000000000000000000000600052604160045260246000fd5b61205b82611d2c565b810181811067ffffffffffffffff8211171561207a57612079612023565b5b80604052505050565b600061208d611c17565b90506120998282612052565b919050565b600067ffffffffffffffff8211156120b9576120b8612023565b5b6120c282611d2c565b9050602081019050919050565b82818337600083830152505050565b60006120f16120ec8461209e565b612083565b90508281526020810184848401111561210d5761210c61201e565b5b6121188482856120cf565b509392505050565b600082601f83011261213557612134612019565b5b81356121458482602086016120de565b91505092915050565b6000806000806080858703121561216857612167611c21565b5b600061217687828801611e6e565b945050602061218787828801611e6e565b935050604061219887828801611db9565b925050606085013567ffffffffffffffff8111156121b9576121b8611c26565b5b6121c587828801612120565b91505092959194509250565b600080604083850312156121e8576121e7611c21565b5b60006121f685828601611e6e565b925050602061220785828601611e6e565b9150509250929050565b7f4e487b7100000000000000000000000000000000000000000000000000000000600052602260045260246000fd5b6000600282049050600182168061225857607f821691505b60208210810361226b5761226a612211565b5b50919050565b7f4e487b7100000000000000000000000000000000000000000000000000000000600052601160045260246000fd5b60006122ab82611d98565b91507fffffffffffffffffffffffffffffffffffffffffffffffffffffffffffffffff82036122dd576122dc612271565b5b600182019050919050565b60006060820190506122fd6000830186611e2d565b61230a6020830185611f43565b6123176040830184611e2d565b949350505050565b7f4e465420646f6573206e6f742065786973740000000000000000000000000000600082015250565b6000612355601283611cf1565b91506123608261231f565b602082019050919050565b6000602082019050818103600083015261238481612348565b9050919050565b7f596f752063616e27742062757920796f7572206f776e204e4654000000000000600082015250565b60006123c1601a83611cf1565b91506123cc8261238b565b602082019050919050565b600060208201905081810360008301526123f0816123b4565b9050919050565b7f596f7520646f6e2774206f776e2074686973204e465400000000000000000000600082015250565b600061242d601683611cf1565b9150612438826123f7565b602082019050919050565b6000602082019050818103600083015261245c81612420565b9050919050565b600081905092915050565b600061247982611ce6565b6124838185612463565b9350612493818560208601611d02565b80840191505092915050565b60006124ab828561246e565b91506124b7828461246e565b91508190509392505050565b600081519050919050565b600082825260208201905092915050565b60006124ea826124c3565b6124f481856124ce565b9350612504818560208601611d02565b61250d81611d2c565b840191505092915050565b600060808201905061252d6000830187611e2d565b61253a6020830186611e2d565b6125476040830185611f43565b818103606083015261255981846124df565b905095945050505050565b60008151905061257381611c57565b92915050565b60006020828403121561258f5761258e611c21565b5b600061259d84828501612564565b91505092915050565b7f4e487b7100000000000000000000000000000000000000000000000000000000600052601260045260246000fd5b60006040820190506125ea6000830185611e2d565b6125f76020830184611f43565b939250505056fea2646970667358221220bef480ce46a886b56503f0a96d160280bc865889240a5275b032a7671ab176d564736f6c63430008180033",
  "linkReferences": {},
  "deployedLinkReferences": {}
}