{
  "_format": "hh-sol-artifact-1",
  "contractName": "Nft",
  "sourceName": "contracts/Nft.sol",
  "abi": [
    {
      "inputs": [],
      "stateMutability": "nonpayable",
      "type": "constructor"
    },
    {
      "inputs": [
        {
          "internalType": "address",
          "name": "sender",
          "type": "address"
        },
        {
          "internalType": "uint256",
          "name": "tokenId",
          "type": "uint256"
        },
        {
          "internalType": "address",
          "name": "owner",
          "type": "address"
        }
      ],
      "name": "ERC721IncorrectOwner",
      "type": "error"
    },
    {
      "inputs": [
        {
          "internalType": "address",
          "name": "operator",
          "type": "address"
        },
        {
          "internalType": "uint256",
          "name": "tokenId",
          "type": "uint256"
        }
      ],
      "name": "ERC721InsufficientApproval",
      "type": "error"
    },
    {
      "inputs": [
        {
          "internalType": "address",
          "name": "approver",
          "type": "address"
        }
      ],
      "name": "ERC721InvalidApprover",
      "type": "error"
    },
    {
      "inputs": [
        {
          "internalType": "address",
          "name": "operator",
          "type": "address"
        }
      ],
      "name": "ERC721InvalidOperator",
      "type": "error"
    },
    {
      "inputs": [
        {
          "internalType": "address",
          "name": "owner",
          "type": "address"
        }
      ],
      "name": "ERC721InvalidOwner",
      "type": "error"
    },
    {
      "inputs": [
        {
          "internalType": "address",
          "name": "receiver",
          "type": "address"
        }
      ],
      "name": "ERC721InvalidReceiver",
      "type": "error"
    },
    {
      "inputs": [
        {
          "internalType": "address",
          "name": "sender",
          "type": "address"
        }
      ],
      "name": "ERC721InvalidSender",
      "type": "error"
    },
    {
      "inputs": [
        {
          "internalType": "uint256",
          "name": "tokenId",
          "type": "uint256"
        }
      ],
      "name": "ERC721NonexistentToken",
      "type": "error"
    },
    {
      "anonymous": false,
      "inputs": [
        {
          "indexed": true,
          "internalType": "address",
          "name": "owner",
          "type": "address"
        },
        {
          "indexed": true,
          "internalType": "address",
          "name": "approved",
          "type": "address"
        },
        {
          "indexed": true,
          "internalType": "uint256",
          "name": "tokenId",
          "type": "uint256"
        }
      ],
      "name": "Approval",
      "type": "event"
    },
    {
      "anonymous": false,
      "inputs": [
        {
          "indexed": true,
          "internalType": "address",
          "name": "owner",
          "type": "address"
        },
        {
          "indexed": true,
          "internalType": "address",
          "name": "operator",
          "type": "address"
        },
        {
          "indexed": false,
          "internalType": "bool",
          "name": "approved",
          "type": "bool"
        }
      ],
      "name": "ApprovalForAll",
      "type": "event"
    },
    {
      "anonymous": false,
      "inputs": [
        {
          "indexed": false,
          "internalType": "uint256",
          "name": "tokenId",
          "type": "uint256"
        }
      ],
      "name": "NFTSold",
      "type": "event"
    },
    {
      "anonymous": false,
      "inputs": [
        {
          "indexed": true,
          "internalType": "address",
          "name": "from",
          "type": "address"
        },
        {
          "indexed": true,
          "internalType": "address",
          "name": "to",
          "type": "address"
        },
        {
          "indexed": true,
          "internalType": "uint256",
          "name": "tokenId",
          "type": "uint256"
        }
      ],
      "name": "Transfer",
      "type": "event"
    },
    {
      "inputs": [
        {
          "internalType": "address",
          "name": "to",
          "type": "address"
        },
        {
          "internalType": "uint256",
          "name": "tokenId",
          "type": "uint256"
        }
      ],
      "name": "approve",
      "outputs": [],
      "stateMutability": "nonpayable",
      "type": "function"
    },
    {
      "inputs": [
        {
          "internalType": "address",
          "name": "owner",
          "type": "address"
        }
      ],
      "name": "balanceOf",
      "outputs": [
        {
          "internalType": "uint256",
          "name": "",
          "type": "uint256"
        }
      ],
      "stateMutability": "view",
      "type": "function"
    },
    {
      "inputs": [
        {
          "internalType": "uint256",
          "name": "tokenId",
          "type": "uint256"
        }
      ],
      "name": "buyNFT",
      "outputs": [],
      "stateMutability": "payable",
      "type": "function"
    },
    {
      "inputs": [
        {
          "internalType": "uint256",
          "name": "tokenId",
          "type": "uint256"
        }
      ],
      "name": "getApproved",
      "outputs": [
        {
          "internalType": "address",
          "name": "",
          "type": "address"
        }
      ],
      "stateMutability": "view",
      "type": "function"
    },
    {
      "inputs": [
        {
          "internalType": "address",
          "name": "owner",
          "type": "address"
        },
        {
          "internalType": "address",
          "name": "operator",
          "type": "address"
        }
      ],
      "name": "isApprovedForAll",
      "outputs": [
        {
          "internalType": "bool",
          "name": "",
          "type": "bool"
        }
      ],
      "stateMutability": "view",
      "type": "function"
    },
    {
      "inputs": [
        {
          "internalType": "uint256",
          "name": "tokenId",
          "type": "uint256"
        },
        {
          "internalType": "uint256",
          "name": "price",
          "type": "uint256"
        }
      ],
      "name": "listNFTForSale",
      "outputs": [],
      "stateMutability": "nonpayable",
      "type": "function"
    },
    {
      "inputs": [],
      "name": "mintNFT",
      "outputs": [],
      "stateMutability": "nonpayable",
      "type": "function"
    },
    {
      "inputs": [],
      "name": "name",
      "outputs": [
        {
          "internalType": "string",
          "name": "",
          "type": "string"
        }
      ],
      "stateMutability": "view",
      "type": "function"
    },
    {
      "inputs": [
        {
          "internalType": "uint256",
          "name": "tokenId",
          "type": "uint256"
        }
      ],
      "name": "ownerOf",
      "outputs": [
        {
          "internalType": "address",
          "name": "",
          "type": "address"
        }
      ],
      "stateMutability": "view",
      "type": "function"
    },
    {
      "inputs": [
        {
          "internalType": "address",
          "name": "from",
          "type": "address"
        },
        {
          "internalType": "address",
          "name": "to",
          "type": "address"
        },
        {
          "internalType": "uint256",
          "name": "tokenId",
          "type": "uint256"
        }
      ],
      "name": "safeTransferFrom",
      "outputs": [],
      "stateMutability": "nonpayable",
      "type": "function"
    },
    {
      "inputs": [
        {
          "internalType": "address",
          "name": "from",
          "type": "address"
        },
        {
          "internalType": "address",
          "name": "to",
          "type": "address"
        },
        {
          "internalType": "uint256",
          "name": "tokenId",
          "type": "uint256"
        },
        {
          "internalType": "bytes",
          "name": "data",
          "type": "bytes"
        }
      ],
      "name": "safeTransferFrom",
      "outputs": [],
      "stateMutability": "nonpayable",
      "type": "function"
    },
    {
      "inputs": [
        {
          "internalType": "address",
          "name": "operator",
          "type": "address"
        },
        {
          "internalType": "bool",
          "name": "approved",
          "type": "bool"
        }
      ],
      "name": "setApprovalForAll",
      "outputs": [],
      "stateMutability": "nonpayable",
      "type": "function"
    },
    {
      "inputs": [
        {
          "internalType": "bytes4",
          "name": "interfaceId",
          "type": "bytes4"
        }
      ],
      "name": "supportsInterface",
      "outputs": [
        {
          "internalType": "bool",
          "name": "",
          "type": "bool"
        }
      ],
      "stateMutability": "view",
      "type": "function"
    },
    {
      "inputs": [],
      "name": "symbol",
      "outputs": [
        {
          "internalType": "string",
          "name": "",
          "type": "string"
        }
      ],
      "stateMutability": "view",
      "type": "function"
    },
    {
      "inputs": [
        {
          "internalType": "uint256",
          "name": "",
          "type": "uint256"
        }
      ],
      "name": "tokenIdToOwner",
      "outputs": [
        {
          "internalType": "address",
          "name": "",
          "type": "address"
        }
      ],
      "stateMutability": "view",
      "type": "function"
    },
    {
      "inputs": [
        {
          "internalType": "uint256",
          "name": "",
          "type": "uint256"
        }
      ],
      "name": "tokenIdToPrice",
      "outputs": [
        {
          "internalType": "uint256",
          "name": "",
          "type": "uint256"
        }
      ],
      "stateMutability": "view",
      "type": "function"
    },
    {
      "inputs": [
        {
          "internalType": "uint256",
          "name": "tokenId",
          "type": "uint256"
        }
      ],
      "name": "tokenURI",
      "outputs": [
        {
          "internalType": "string",
          "name": "",
          "type": "string"
        }
      ],
      "stateMutability": "view",
      "type": "function"
    },
    {
      "inputs": [
        {
          "internalType": "address",
          "name": "from",
          "type": "address"
        },
        {
          "internalType": "address",
          "name": "to",
          "type": "address"
        },
        {
          "internalType": "uint256",
          "name": "tokenId",
          "type": "uint256"
        }
      ],
      "name": "transferFrom",
      "outputs": [],
      "stateMutability": "nonpayable",
      "type": "function"
    },
    {
      "inputs": [
        {
          "internalType": "address",
          "name": "to",
          "type": "address"
        },
        {
          "internalType": "uint256",
          "name": "tokenId",
          "type": "uint256"
        }
      ],
      "name": "transferNFT",
      "outputs": [],
      "stateMutability": "nonpayable",
      "type": "function"
    }
  ],
  "bytecode": "0x60806040523480156200001157600080fd5b506040518060400160405280600581526020017f4d794e46540000000000000000000000000000000000000000000000000000008152506040518060400160405280600481526020017f4d4e46540000000000000000000000000000000000000000000000000000000081525081600090816200008f919062000324565b508060019081620000a1919062000324565b5050506200040b565b600081519050919050565b7f4e487b7100000000000000000000000000000000000000000000000000000000600052604160045260246000fd5b7f4e487b7100000000000000000000000000000000000000000000000000000000600052602260045260246000fd5b600060028204905060018216806200012c57607f821691505b602082108103620001425762000141620000e4565b5b50919050565b60008190508160005260206000209050919050565b60006020601f8301049050919050565b600082821b905092915050565b600060088302620001ac7fffffffffffffffffffffffffffffffffffffffffffffffffffffffffffffffff826200016d565b620001b886836200016d565b95508019841693508086168417925050509392505050565b6000819050919050565b6000819050919050565b600062000205620001ff620001f984620001d0565b620001da565b620001d0565b9050919050565b6000819050919050565b6200022183620001e4565b6200023962000230826200020c565b8484546200017a565b825550505050565b600090565b6200025062000241565b6200025d81848462000216565b505050565b5b8181101562000285576200027960008262000246565b60018101905062000263565b5050565b601f821115620002d4576200029e8162000148565b620002a9846200015d565b81016020851015620002b9578190505b620002d1620002c8856200015d565b83018262000262565b50505b505050565b600082821c905092915050565b6000620002f960001984600802620002d9565b1980831691505092915050565b6000620003148383620002e6565b9150826002028217905092915050565b6200032f82620000aa565b67ffffffffffffffff8111156200034b576200034a620000b5565b5b62000357825462000113565b6200036482828562000289565b600060209050601f8311600181146200039c576000841562000387578287015190505b62000393858262000306565b86555062000403565b601f198416620003ac8662000148565b60005b82811015620003d657848901518255600182019150602085019450602081019050620003af565b86831015620003f65784890151620003f2601f891682620002e6565b8355505b6001600288020188555050505b505050505050565b61293f806200041b6000396000f3fe6080604052600436106101145760003560e01c80636e9e48ef116100a0578063b2733b3911610064578063b2733b39146103a0578063b88d4fde146103c9578063c87b56dd146103f2578063e985e9c51461042f578063f4812eb91461046c57610114565b80636e9e48ef146102a957806370a08231146102e657806394ab67fe1461032357806395d89b411461034c578063a22cb4651461037757610114565b806314f710fe116100e757806314f710fe146101e757806323b872dd146101fe57806342842e0e1461022757806351ed8288146102505780636352211e1461026c57610114565b806301ffc9a71461011957806306fdde0314610156578063081812fc14610181578063095ea7b3146101be575b600080fd5b34801561012557600080fd5b50610140600480360381019061013b9190611e24565b6104a9565b60405161014d9190611e6c565b60405180910390f35b34801561016257600080fd5b5061016b61058b565b6040516101789190611f17565b60405180910390f35b34801561018d57600080fd5b506101a860048036038101906101a39190611f6f565b61061d565b6040516101b59190611fdd565b60405180910390f35b3480156101ca57600080fd5b506101e560048036038101906101e09190612024565b610639565b005b3480156101f357600080fd5b506101fc61064f565b005b34801561020a57600080fd5b5061022560048036038101906102209190612064565b6106cd565b005b34801561023357600080fd5b5061024e60048036038101906102499190612064565b6107cf565b005b61026a60048036038101906102659190611f6f565b6107ef565b005b34801561027857600080fd5b50610293600480360381019061028e9190611f6f565b610a4b565b6040516102a09190611fdd565b60405180910390f35b3480156102b557600080fd5b506102d060048036038101906102cb9190611f6f565b610a5d565b6040516102dd9190611fdd565b60405180910390f35b3480156102f257600080fd5b5061030d600480360381019061030891906120b7565b610a90565b60405161031a91906120f3565b60405180910390f35b34801561032f57600080fd5b5061034a60048036038101906103459190612024565b610b4a565b005b34801561035857600080fd5b50610361610c21565b60405161036e9190611f17565b60405180910390f35b34801561038357600080fd5b5061039e6004803603810190610399919061213a565b610cb3565b005b3480156103ac57600080fd5b506103c760048036038101906103c2919061217a565b610cc9565b005b3480156103d557600080fd5b506103f060048036038101906103eb91906122ef565b610d9e565b005b3480156103fe57600080fd5b5061041960048036038101906104149190611f6f565b610dbb565b6040516104269190611f17565b60405180910390f35b34801561043b57600080fd5b5061045660048036038101906104519190612372565b610e24565b6040516104639190611e6c565b60405180910390f35b34801561047857600080fd5b50610493600480360381019061048e9190611f6f565b610eb8565b6040516104a091906120f3565b60405180910390f35b60007f80ac58cd000000000000000000000000000000000000000000000000000000007bffffffffffffffffffffffffffffffffffffffffffffffffffffffff1916827bffffffffffffffffffffffffffffffffffffffffffffffffffffffff1916148061057457507f5b5e139f000000000000000000000000000000000000000000000000000000007bffffffffffffffffffffffffffffffffffffffffffffffffffffffff1916827bffffffffffffffffffffffffffffffffffffffffffffffffffffffff1916145b80610584575061058382610ed0565b5b9050919050565b60606000805461059a906123e1565b80601f01602080910402602001604051908101604052809291908181526020018280546105c6906123e1565b80156106135780601f106105e857610100808354040283529160200191610613565b820191906000526020600020905b8154815290600101906020018083116105f657829003601f168201915b5050505050905090565b600061062882610f3a565b5061063282610fc2565b9050919050565b61064b8282610646610fff565b611007565b5050565b6006600081548092919061066290612441565b9190505550600060065490506106783382611019565b336007600083815260200190815260200160002060006101000a81548173ffffffffffffffffffffffffffffffffffffffff021916908373ffffffffffffffffffffffffffffffffffffffff16021790555050565b600073ffffffffffffffffffffffffffffffffffffffff168273ffffffffffffffffffffffffffffffffffffffff160361073f5760006040517f64a0ae920000000000000000000000000000000000000000000000000000000081526004016107369190611fdd565b60405180910390fd5b6000610753838361074e610fff565b611037565b90508373ffffffffffffffffffffffffffffffffffffffff168173ffffffffffffffffffffffffffffffffffffffff16146107c9578382826040517f64283d7b0000000000000000000000000000000000000000000000000000000081526004016107c093929190612489565b60405180910390fd5b50505050565b6107ea83838360405180602001604052806000815250610d9e565b505050565b60006007600083815260200190815260200160002060009054906101000a900473ffffffffffffffffffffffffffffffffffffffff169050600073ffffffffffffffffffffffffffffffffffffffff168173ffffffffffffffffffffffffffffffffffffffff1603610896576040517f08c379a000000000000000000000000000000000000000000000000000000000815260040161088d9061250c565b60405180910390fd5b3373ffffffffffffffffffffffffffffffffffffffff168173ffffffffffffffffffffffffffffffffffffffff1603610904576040517f08c379a00000000000000000000000000000000000000000000000000000000081526004016108fb90612578565b60405180910390fd5b6000600860008481526020019081526020016000205490506000811161095f576040517f08c379a0000000000000000000000000000000000000000000000000000000008152600401610956906125e4565b60405180910390fd5b803410156109a2576040517f08c379a000000000000000000000000000000000000000000000000000000000815260040161099990612650565b60405180910390fd5b8173ffffffffffffffffffffffffffffffffffffffff166108fc829081150290604051600060405180830381858888f193505050501580156109e8573d6000803e3d6000fd5b506109f4823385611251565b336007600085815260200190815260200160002060006101000a81548173ffffffffffffffffffffffffffffffffffffffff021916908373ffffffffffffffffffffffffffffffffffffffff160217905550505050565b6000610a5682610f3a565b9050919050565b60076020528060005260406000206000915054906101000a900473ffffffffffffffffffffffffffffffffffffffff1681565b60008073ffffffffffffffffffffffffffffffffffffffff168273ffffffffffffffffffffffffffffffffffffffff1603610b035760006040517f89c62b64000000000000000000000000000000000000000000000000000000008152600401610afa9190611fdd565b60405180910390fd5b600360008373ffffffffffffffffffffffffffffffffffffffff1673ffffffffffffffffffffffffffffffffffffffff168152602001908152602001600020549050919050565b3373ffffffffffffffffffffffffffffffffffffffff16610b6a82610a4b565b73ffffffffffffffffffffffffffffffffffffffff1614610bc0576040517f08c379a0000000000000000000000000000000000000000000000000000000008152600401610bb7906126bc565b60405180910390fd5b610bcb338383611251565b816007600083815260200190815260200160002060006101000a81548173ffffffffffffffffffffffffffffffffffffffff021916908373ffffffffffffffffffffffffffffffffffffffff1602179055505050565b606060018054610c30906123e1565b80601f0160208091040260200160405190810160405280929190818152602001828054610c5c906123e1565b8015610ca95780601f10610c7e57610100808354040283529160200191610ca9565b820191906000526020600020905b815481529060010190602001808311610c8c57829003601f168201915b5050505050905090565b610cc5610cbe610fff565b83836113be565b5050565b3373ffffffffffffffffffffffffffffffffffffffff16610ce983610a4b565b73ffffffffffffffffffffffffffffffffffffffff1614610d3f576040517f08c379a0000000000000000000000000000000000000000000000000000000008152600401610d36906126bc565b60405180910390fd5b60008111610d82576040517f08c379a0000000000000000000000000000000000000000000000000000000008152600401610d799061274e565b60405180910390fd5b8060086000848152602001908152602001600020819055505050565b610da98484846106cd565b610db58484848461152d565b50505050565b6060610dc682610f3a565b506000610dd16116e4565b90506000815111610df15760405180602001604052806000815250610e1c565b80610dfb846116fb565b604051602001610e0c9291906127aa565b6040516020818303038152906040525b915050919050565b6000600560008473ffffffffffffffffffffffffffffffffffffffff1673ffffffffffffffffffffffffffffffffffffffff16815260200190815260200160002060008373ffffffffffffffffffffffffffffffffffffffff1673ffffffffffffffffffffffffffffffffffffffff16815260200190815260200160002060009054906101000a900460ff16905092915050565b60086020528060005260406000206000915090505481565b60007f01ffc9a7000000000000000000000000000000000000000000000000000000007bffffffffffffffffffffffffffffffffffffffffffffffffffffffff1916827bffffffffffffffffffffffffffffffffffffffffffffffffffffffff1916149050919050565b600080610f46836117c9565b9050600073ffffffffffffffffffffffffffffffffffffffff168173ffffffffffffffffffffffffffffffffffffffff1603610fb957826040517f7e273289000000000000000000000000000000000000000000000000000000008152600401610fb091906120f3565b60405180910390fd5b80915050919050565b60006004600083815260200190815260200160002060009054906101000a900473ffffffffffffffffffffffffffffffffffffffff169050919050565b600033905090565b6110148383836001611806565b505050565b6110338282604051806020016040528060008152506119cb565b5050565b600080611043846117c9565b9050600073ffffffffffffffffffffffffffffffffffffffff168373ffffffffffffffffffffffffffffffffffffffff1614611085576110848184866119e7565b5b600073ffffffffffffffffffffffffffffffffffffffff168173ffffffffffffffffffffffffffffffffffffffff1614611116576110c7600085600080611806565b6001600360008373ffffffffffffffffffffffffffffffffffffffff1673ffffffffffffffffffffffffffffffffffffffff168152602001908152602001600020600082825403925050819055505b600073ffffffffffffffffffffffffffffffffffffffff168573ffffffffffffffffffffffffffffffffffffffff1614611199576001600360008773ffffffffffffffffffffffffffffffffffffffff1673ffffffffffffffffffffffffffffffffffffffff168152602001908152602001600020600082825401925050819055505b846002600086815260200190815260200160002060006101000a81548173ffffffffffffffffffffffffffffffffffffffff021916908373ffffffffffffffffffffffffffffffffffffffff160217905550838573ffffffffffffffffffffffffffffffffffffffff168273ffffffffffffffffffffffffffffffffffffffff167fddf252ad1be2c89b69c2b068fc378daa952ba7f163c4a11628f55a4df523b3ef60405160405180910390a4809150509392505050565b600073ffffffffffffffffffffffffffffffffffffffff168273ffffffffffffffffffffffffffffffffffffffff16036112c35760006040517f64a0ae920000000000000000000000000000000000000000000000000000000081526004016112ba9190611fdd565b60405180910390fd5b60006112d183836000611037565b9050600073ffffffffffffffffffffffffffffffffffffffff168173ffffffffffffffffffffffffffffffffffffffff160361134457816040517f7e27328900000000000000000000000000000000000000000000000000000000815260040161133b91906120f3565b60405180910390fd5b8373ffffffffffffffffffffffffffffffffffffffff168173ffffffffffffffffffffffffffffffffffffffff16146113b8578382826040517f64283d7b0000000000000000000000000000000000000000000000000000000081526004016113af93929190612489565b60405180910390fd5b50505050565b600073ffffffffffffffffffffffffffffffffffffffff168273ffffffffffffffffffffffffffffffffffffffff160361142f57816040517f5b08ba180000000000000000000000000000000000000000000000000000000081526004016114269190611fdd565b60405180910390fd5b80600560008573ffffffffffffffffffffffffffffffffffffffff1673ffffffffffffffffffffffffffffffffffffffff16815260200190815260200160002060008473ffffffffffffffffffffffffffffffffffffffff1673ffffffffffffffffffffffffffffffffffffffff16815260200190815260200160002060006101000a81548160ff0219169083151502179055508173ffffffffffffffffffffffffffffffffffffffff168373ffffffffffffffffffffffffffffffffffffffff167f17307eab39ab6107e8899845ad3d59bd9653f200f220920489ca2b5937696c31836040516115209190611e6c565b60405180910390a3505050565b60008373ffffffffffffffffffffffffffffffffffffffff163b11156116de578273ffffffffffffffffffffffffffffffffffffffff1663150b7a02611571610fff565b8685856040518563ffffffff1660e01b81526004016115939493929190612823565b6020604051808303816000875af19250505080156115cf57506040513d601f19601f820116820180604052508101906115cc9190612884565b60015b611653573d80600081146115ff576040519150601f19603f3d011682016040523d82523d6000602084013e611604565b606091505b50600081510361164b57836040517f64a0ae920000000000000000000000000000000000000000000000000000000081526004016116429190611fdd565b60405180910390fd5b805181602001fd5b63150b7a0260e01b7bffffffffffffffffffffffffffffffffffffffffffffffffffffffff1916817bffffffffffffffffffffffffffffffffffffffffffffffffffffffff1916146116dc57836040517f64a0ae920000000000000000000000000000000000000000000000000000000081526004016116d39190611fdd565b60405180910390fd5b505b50505050565b606060405180602001604052806000815250905090565b60606000600161170a84611aab565b01905060008167ffffffffffffffff811115611729576117286121c4565b5b6040519080825280601f01601f19166020018201604052801561175b5781602001600182028036833780820191505090505b509050600082602001820190505b6001156117be578080600190039150507f3031323334353637383961626364656600000000000000000000000000000000600a86061a8153600a85816117b2576117b16128b1565b5b04945060008503611769575b819350505050919050565b60006002600083815260200190815260200160002060009054906101000a900473ffffffffffffffffffffffffffffffffffffffff169050919050565b808061183f5750600073ffffffffffffffffffffffffffffffffffffffff168273ffffffffffffffffffffffffffffffffffffffff1614155b1561197357600061184f84610f3a565b9050600073ffffffffffffffffffffffffffffffffffffffff168373ffffffffffffffffffffffffffffffffffffffff16141580156118ba57508273ffffffffffffffffffffffffffffffffffffffff168173ffffffffffffffffffffffffffffffffffffffff1614155b80156118cd57506118cb8184610e24565b155b1561190f57826040517fa9fbf51f0000000000000000000000000000000000000000000000000000000081526004016119069190611fdd565b60405180910390fd5b811561197157838573ffffffffffffffffffffffffffffffffffffffff168273ffffffffffffffffffffffffffffffffffffffff167f8c5be1e5ebec7d5bd14f71427d1e84f3dd0314c0f7b2291e5b200ac8c7c3b92560405160405180910390a45b505b836004600085815260200190815260200160002060006101000a81548173ffffffffffffffffffffffffffffffffffffffff021916908373ffffffffffffffffffffffffffffffffffffffff16021790555050505050565b6119d58383611bfe565b6119e2600084848461152d565b505050565b6119f2838383611cf7565b611aa657600073ffffffffffffffffffffffffffffffffffffffff168373ffffffffffffffffffffffffffffffffffffffff1603611a6757806040517f7e273289000000000000000000000000000000000000000000000000000000008152600401611a5e91906120f3565b60405180910390fd5b81816040517f177e802f000000000000000000000000000000000000000000000000000000008152600401611a9d9291906128e0565b60405180910390fd5b505050565b600080600090507a184f03e93ff9f4daa797ed6e38ed64bf6a1f0100000000000000008310611b09577a184f03e93ff9f4daa797ed6e38ed64bf6a1f0100000000000000008381611aff57611afe6128b1565b5b0492506040810190505b6d04ee2d6d415b85acef81000000008310611b46576d04ee2d6d415b85acef81000000008381611b3c57611b3b6128b1565b5b0492506020810190505b662386f26fc100008310611b7557662386f26fc100008381611b6b57611b6a6128b1565b5b0492506010810190505b6305f5e1008310611b9e576305f5e1008381611b9457611b936128b1565b5b0492506008810190505b6127108310611bc3576127108381611bb957611bb86128b1565b5b0492506004810190505b60648310611be65760648381611bdc57611bdb6128b1565b5b0492506002810190505b600a8310611bf5576001810190505b80915050919050565b600073ffffffffffffffffffffffffffffffffffffffff168273ffffffffffffffffffffffffffffffffffffffff1603611c705760006040517f64a0ae92000000000000000000000000000000000000000000000000000000008152600401611c679190611fdd565b60405180910390fd5b6000611c7e83836000611037565b9050600073ffffffffffffffffffffffffffffffffffffffff168173ffffffffffffffffffffffffffffffffffffffff1614611cf25760006040517f73c6ac6e000000000000000000000000000000000000000000000000000000008152600401611ce99190611fdd565b60405180910390fd5b505050565b60008073ffffffffffffffffffffffffffffffffffffffff168373ffffffffffffffffffffffffffffffffffffffff1614158015611daf57508273ffffffffffffffffffffffffffffffffffffffff168473ffffffffffffffffffffffffffffffffffffffff161480611d705750611d6f8484610e24565b5b80611dae57508273ffffffffffffffffffffffffffffffffffffffff16611d9683610fc2565b73ffffffffffffffffffffffffffffffffffffffff16145b5b90509392505050565b6000604051905090565b600080fd5b600080fd5b60007fffffffff0000000000000000000000000000000000000000000000000000000082169050919050565b611e0181611dcc565b8114611e0c57600080fd5b50565b600081359050611e1e81611df8565b92915050565b600060208284031215611e3a57611e39611dc2565b5b6000611e4884828501611e0f565b91505092915050565b60008115159050919050565b611e6681611e51565b82525050565b6000602082019050611e816000830184611e5d565b92915050565b600081519050919050565b600082825260208201905092915050565b60005b83811015611ec1578082015181840152602081019050611ea6565b60008484015250505050565b6000601f19601f8301169050919050565b6000611ee982611e87565b611ef38185611e92565b9350611f03818560208601611ea3565b611f0c81611ecd565b840191505092915050565b60006020820190508181036000830152611f318184611ede565b905092915050565b6000819050919050565b611f4c81611f39565b8114611f5757600080fd5b50565b600081359050611f6981611f43565b92915050565b600060208284031215611f8557611f84611dc2565b5b6000611f9384828501611f5a565b91505092915050565b600073ffffffffffffffffffffffffffffffffffffffff82169050919050565b6000611fc782611f9c565b9050919050565b611fd781611fbc565b82525050565b6000602082019050611ff26000830184611fce565b92915050565b61200181611fbc565b811461200c57600080fd5b50565b60008135905061201e81611ff8565b92915050565b6000806040838503121561203b5761203a611dc2565b5b60006120498582860161200f565b925050602061205a85828601611f5a565b9150509250929050565b60008060006060848603121561207d5761207c611dc2565b5b600061208b8682870161200f565b935050602061209c8682870161200f565b92505060406120ad86828701611f5a565b9150509250925092565b6000602082840312156120cd576120cc611dc2565b5b60006120db8482850161200f565b91505092915050565b6120ed81611f39565b82525050565b600060208201905061210860008301846120e4565b92915050565b61211781611e51565b811461212257600080fd5b50565b6000813590506121348161210e565b92915050565b6000806040838503121561215157612150611dc2565b5b600061215f8582860161200f565b925050602061217085828601612125565b9150509250929050565b6000806040838503121561219157612190611dc2565b5b600061219f85828601611f5a565b92505060206121b085828601611f5a565b9150509250929050565b600080fd5b600080fd5b7f4e487b7100000000000000000000000000000000000000000000000000000000600052604160045260246000fd5b6121fc82611ecd565b810181811067ffffffffffffffff8211171561221b5761221a6121c4565b5b80604052505050565b600061222e611db8565b905061223a82826121f3565b919050565b600067ffffffffffffffff82111561225a576122596121c4565b5b61226382611ecd565b9050602081019050919050565b82818337600083830152505050565b600061229261228d8461223f565b612224565b9050828152602081018484840111156122ae576122ad6121bf565b5b6122b9848285612270565b509392505050565b600082601f8301126122d6576122d56121ba565b5b81356122e684826020860161227f565b91505092915050565b6000806000806080858703121561230957612308611dc2565b5b60006123178782880161200f565b94505060206123288782880161200f565b935050604061233987828801611f5a565b925050606085013567ffffffffffffffff81111561235a57612359611dc7565b5b612366878288016122c1565b91505092959194509250565b6000806040838503121561238957612388611dc2565b5b60006123978582860161200f565b92505060206123a88582860161200f565b9150509250929050565b7f4e487b7100000000000000000000000000000000000000000000000000000000600052602260045260246000fd5b600060028204905060018216806123f957607f821691505b60208210810361240c5761240b6123b2565b5b50919050565b7f4e487b7100000000000000000000000000000000000000000000000000000000600052601160045260246000fd5b600061244c82611f39565b91507fffffffffffffffffffffffffffffffffffffffffffffffffffffffffffffffff820361247e5761247d612412565b5b600182019050919050565b600060608201905061249e6000830186611fce565b6124ab60208301856120e4565b6124b86040830184611fce565b949350505050565b7f4e465420646f6573206e6f742065786973740000000000000000000000000000600082015250565b60006124f6601283611e92565b9150612501826124c0565b602082019050919050565b60006020820190508181036000830152612525816124e9565b9050919050565b7f596f752063616e27742062757920796f7572206f776e204e4654000000000000600082015250565b6000612562601a83611e92565b915061256d8261252c565b602082019050919050565b6000602082019050818103600083015261259181612555565b9050919050565b7f4e4654206973206e6f74206c697374656420666f722073616c65000000000000600082015250565b60006125ce601a83611e92565b91506125d982612598565b602082019050919050565b600060208201905081810360008301526125fd816125c1565b9050919050565b7f496e73756666696369656e742066756e64732073656e74000000000000000000600082015250565b600061263a601783611e92565b915061264582612604565b602082019050919050565b600060208201905081810360008301526126698161262d565b9050919050565b7f596f7520646f6e2774206f776e2074686973204e465400000000000000000000600082015250565b60006126a6601683611e92565b91506126b182612670565b602082019050919050565b600060208201905081810360008301526126d581612699565b9050919050565b7f4c697374696e67207072696365206d757374206265206772656174657220746860008201527f616e207a65726f00000000000000000000000000000000000000000000000000602082015250565b6000612738602783611e92565b9150612743826126dc565b604082019050919050565b600060208201905081810360008301526127678161272b565b9050919050565b600081905092915050565b600061278482611e87565b61278e818561276e565b935061279e818560208601611ea3565b80840191505092915050565b60006127b68285612779565b91506127c28284612779565b91508190509392505050565b600081519050919050565b600082825260208201905092915050565b60006127f5826127ce565b6127ff81856127d9565b935061280f818560208601611ea3565b61281881611ecd565b840191505092915050565b60006080820190506128386000830187611fce565b6128456020830186611fce565b61285260408301856120e4565b818103606083015261286481846127ea565b905095945050505050565b60008151905061287e81611df8565b92915050565b60006020828403121561289a57612899611dc2565b5b60006128a88482850161286f565b91505092915050565b7f4e487b7100000000000000000000000000000000000000000000000000000000600052601260045260246000fd5b60006040820190506128f56000830185611fce565b61290260208301846120e4565b939250505056fea26469706673582212200a43d0a679cb65d7caa611dec48008a0f9d5237be32688259b6f9995fe001c9e64736f6c63430008180033",
  "linkReferences": {},
  "deployedLinkReferences": {}
}